:020000040000FA
:10000000900D002059010000FD0300006301000075
:1000100000000000000000000000000000000000E0
:10002000000000000000000000000000650100006A
:1000300000000000000000006701000069010000EE
:100040006B0100006B0100006B0100006B01000000
:100050006B0100006B0100006B0100006B010000F0
:100060006B0100006B0100006B0100006B010000E0
:100070006D230000F523000011240000F90F00009B
:100080006B0100006B010000392200006B010000D1
:10009000451E00006B0100006B0100006B010000B9
:1000A0006B0100006B0100006B0100006B010000A0
:1000B000DD1A00006B0100006B010000251D00002F
:1000C00000F002F800F038F80CA030C80838241806
:1000D0002D18A246671EAB4654465D46AC4201D180
:1000E00000F02AF87E460F3E0FCCB646012633427A
:1000F00000D0FB1AA246AB463343184758450000D0
:10010000784500000023002400250026103A01D382
:1001100078C1FBD8520700D330C100D50B607047BF
:1001200010B5642902D100F093F810BD002010BD75
:100130001FB51FBD10B510BD00F0C8FE1146FFF77A
:10014000F7FF02F025FF00F0E0FE03B4FFF7F2FF37
:1001500003BC00F015FF0000074880470748004730
:10016000FEE7FEE7FEE7FEE7FEE7FEE70448054997
:10017000034A054B7047000069210000C1000000E0
:1001800090050020900D002090050020434351432E
:1001900030B55C18010C130C0D4692B25D4380B271
:1001A00051432C19054655430A0C09044D19624167
:1001B0005843010C00044019514130BD0FB41CB527
:1001C000074B06AA7B4469460090059800F005FE9F
:1001D0000020694600F00CF91CBC08BC04B01847AC
:1001E00029020000F8B50E46044600202062204691
:1001F000E1688847002829D0252802D06268A168D4
:1002000020E0E16820460027884705001ED02846E8
:100210004138192802D80127FF02203532462046EE
:1002200027602946FFF77CFF002808D0012804D06A
:10023000F61DF608F6000836D9E7361DD7E76268DE
:100240002846A1689047206A401CCFE7206AF8BD85
:10025000F7B5002575291068009914A611D0C0467D
:10026000C046002802DA404211A608E00099096859
:100270008A0701D50FA602E0490704D50EA601257D
:1002800001E0C046C046009F0024243704E000F08F
:10029000B7FD30313955641C0028F8D12B46324661
:1002A0002146009800F03BFDFEBD0000000000006C
:1002B0002D0000002B0000002000000030B5054696
:1002C0000B462A461C781078521C5B1C002801D073
:1002D000A042F7D0002C03D0002802D06D1CEFE71D
:1002E000284630BD01E004C0091F0429FBD28B075A
:1002F00001D50280801CC90700D002707047002918
:100300000BD0C30702D00270401C491E022904D33F
:10031000830702D50280801C891EE3E70022EEE7F6
:100320000022DFE770477047704700000246C80FA1
:10033000C00781434B0030B54B405B009B0D20D084
:100340001923DB06C91801231B05994220DB03246E
:10035000A40704251346AB400BD3002B04D1EB06B6
:1003600013409B00E34204D40124640700231219C4
:100370005941FF231B0599420BD2C9000143500F7D
:1003800009E0CB0204D501430803024305D0054828
:1003900030BDFF21C905084330BD084607210905C6
:1003A000884330BD0000C07F0346CA02400D10B52F
:1003B00010430A1504D00124E4072043002A05DB7A
:1003C0000A4CA21A04D4D040FF2A00DD002010BD40
:1003D0004A00002B01D0012000E00020101801226B
:1003E0005205D042F2D8C817C04310BD1E04000009
:1003F0000A681070521C0A6070477047704700000E
:10040000FFFFFFFFFFFFFFFFFFFFFFFFFEFBFFFF01
:10041000002203098B422CD3030A8B4211D3002301
:100420009C464EE003460B433CD4002243088B42DB
:1004300031D303098B421CD3030A8B4201D3944668
:100440003FE0C3098B4201D3CB01C01A524183095B
:100450008B4201D38B01C01A524143098B4201D315
:100460004B01C01A524103098B4201D30B01C01A40
:100470005241C3088B4201D3CB00C01A52418308BA
:100480008B4201D38B00C01A524143088B4201D3E7
:100490004B00C01A5241411A00D201465241104647
:1004A00070475DE0CA0F00D04942031000D34042BC
:1004B000534000229C4603098B422DD3030A8B42F2
:1004C00012D3FC22890112BA030A8B420CD3890190
:1004D00092118B4208D3890192118B4204D3890176
:1004E0003AD0921100E08909C3098B4201D3CB01B4
:1004F000C01A524183098B4201D38B01C01A524169
:1005000043098B4201D34B01C01A524103098B426C
:1005100001D30B01C01A5241C3088B4201D3CB0057
:10052000C01A524183088B4201D38B00C01A52413A
:10053000D9D243088B4201D34B00C01A5241411A11
:1005400000D20146634652415B10104601D340423F
:10055000002B00D54942704763465B1000D34042F0
:1005600001B50020C046C04602BD0000F0B50C46F3
:10057000871A9C410D46861A9D4103D2C01BA1419A
:10058000D21963410D0D1F0DC94EEC1BAE435CD05B
:100590007F057F0D0026002F51D02D05AC46A943C5
:1005A000DD020123ED0A1B051D4320231B1B24D460
:1005B0001746E740381871412F46E740CC199D4057
:1005C0002818314661410C0D27D161449A4013D55A
:1005D0000023401C594152000ED140084000012226
:1005E0004B005205D34207D305204007C14201D535
:1005F000B04900E0B0493046F0BD6B00002A00D0A1
:1006000001229A181F23203C1B1B01D5002302E066
:10061000E540281871410C0DD7D001242405091993
:10062000C407CD0740084908E40F28436144002C63
:10063000D5D00024401C61419A40D0D1CDE76A0555
:10064000520DD9D1C90FC907D5E79C4D4E000028DE
:1006500001D0012400E0002434195F00002A01D0F9
:10066000012600E00026BE19954FAC420CD8AE42E0
:100670000AD8B44206D001256D05EC42BCD0104624
:100680001946F0BD9942FCD000203946F0BDF0B5C6
:100690001FB40C460F46811A9F412546861A9D417C
:1006A00006D20125ED076F40401ABC4152187B412C
:1006B000210D1E0D8D1BAC467D4D8D437ED07505E5
:1006C0006D0D7CD00D05AE46AC431B031B0B794D65
:1006D00052429D41202366469B1B14D31746F74088
:1006E000381800260090744160462F460741E419EF
:1006F00000989D402818664116D4714671189A409A
:1007000025D5012320E093182A466A415200002B88
:1007100000D0521C1E23203E9B1B002B61DD354167
:10072000EE1728186641E8D5001876415B1C9A4000
:1007300000D3401C4B05F3181524E34010D3002BC5
:1007400052D071467118D30FC01802D3491C05B09E
:10075000F0BD0123DB079A42F9D140084000F6E7DB
:1007600001225205B21801D1002853D00123CC0A2E
:10077000DB029943891E002A08D1020C03D0020C27
:100780000004103902E00246002020390023550BF6
:1007900005D112020823550B01D152010D23550C2E
:1007A00001D112011B1DD50C01D192009B1C150D0E
:1007B00001D152005B1C2025EE1A01E02CE022E062
:1007C0000546F54015439840CA1AE1076918130514
:1007D000C918002ABBDA032040070818C10FC9074F
:1007E0000FE071466118B2E7F10740080843711045
:1007F00071444A000CD001235B059A42A7D2C90F6D
:10080000C9070020A3E74905490D26D1002001E0D2
:100810000028F4D100219AE7284D6600002801D075
:10082000012100E0002171185F00002A01D001269B
:1008300000E00026BE19224FA94210D8AE420ED8C1
:10084000B14208D001256D05E94206D01946A8023B
:10085000414010467BE79C4201D0214677E70020CB
:10086000394674E710B50C465C4005D50124E40711
:100870006340FFF70CFF10BDFFF778FE10BD30B4EA
:100880000C465C4004D50124E407634030BC6DE6AF
:1008900030BCFCE670B50124E40761400D465D40C4
:1008A00002D4FFF763FE70BD6340FFF7F0FE70BD3A
:1008B000FF0700000000F0FF0000F07F0000E0FFF5
:1008C0000000F87FF0B58B4C0F09254689B0BD4379
:1008D0007BD01D092646AE43FAD00E465E40274027
:1008E000F60F3E43254071D024012142FBD0FF2466
:1008F000AD19A4042D1B039501252D05DB02DB0A90
:10090000C9022B43C90A29431E010901040F130F11
:10091000050121431701880B820391432D098C4661
:10092000A90B1E438A039543B30B9A0396433F09D1
:10093000BA0B9403A74302962E467E430497B6460D
:100940004E19D7190C460196544305977E43371B21
:100950007646BF1B3601B646BE0B36190096764664
:10096000BC043719009C01D3641C00946400002F60
:1009700001D001263443029E049F754366467E43A0
:100980000496760034196E0034190094029C019E7E
:100990001C196643751BAE46069465464519059CB1
:1009A00005956C43594375460891691A0191049E57
:1009B00001465143A41B0491611A009C0791E10672
:1009C00005D061090122114302E072E06EE0610985
:1009D000089D00272C0A2D066918049D7C412A0ACF
:1009E0002D066918019D6241AC0DAD026D18544190
:1009F000079A910D920255196141029A6446584333
:100A00005443069B059A5A43121A131B9A0E9B01D4
:100A10005B187A41010B0005C3185141220A2006D8
:100A200044195A419A4200D2491C01204002814295
:100A300003D315230226F64302E014230326F643CC
:100A40002020C51AA9401746AF40DA400A43204685
:100A50000399D8400914731819055118039A38439B
:100A6000D2075140AC4009D00122944006D3002265
:100A7000401C5141002C01D1400840001E4A9342C5
:100A800012D3012203989206904207DB052040070B
:100A900009181A480143C012414004E003204007EE
:100AA0000818C10FC907002009B0F0BD0020F107E8
:100AB000FAE705180C464C4111486D42A04115D388
:100AC00094181A465A410E48644290410ED30120B0
:100AD0004A004005824209D35A00824206D3594057
:100AE000C90F084AC90700201143DDE70020064965
:100AF000DAE700000000FF07FE070000FFFFFF7FAE
:100B00000000E0FF0000F07F0000F87F0121C90530
:100B10000123411842001B06D3185B0E0AD0C110F6
:100B20000722D206891840075242D14201D552000D
:100B300089187047090208D50146002A03D0C10F61
:100B4000C9070020704710467047420202D00020BB
:100B500002497047072109050143F4E70000F87FC7
:100B6000F0B5FF252D04C609C209FF2704462E4013
:100B70000137CB093E4348402A402B400746002A14
:100B80006BD0002B69D0AA4267D0AB4265D0002859
:100B900000DA32460125ED0529432C4309022002E3
:100BA000090AD21A4B0C7F24E31A434C000A7C44F6
:100BB000E35C7D242404121914145B00A2188842FB
:100BC00001D3521C00E0400049420C465C43241112
:100BD0005C43DB016415E318040A5C43C502200D85
:100BE0000C4644436419250A5D432303EC0C0D466F
:100BF000654300030019EB184C42A34201D35B1874
:100C0000401CD4052018002B07D05B00C91804D362
:100C1000401C002901D1400840003F2189048A423C
:100C200009D3002A08DC1106090F04D00321490763
:100C30004018C00FC007F0BD0122410012068918FC
:100C40007F2252069142F6D205214907C84201D5BA
:100C50009010F0BDFF20C005F0BD002F00DA324635
:100C60001648AA4207D2AB4205D21902090E17D084
:100C7000F80FC007F0BDFF2563002D06AB42F9D881
:100C80004900A942F6D8AB4201D1A942F2D0A9420B
:100C900001D1002101E061004908D0050843F0BD01
:100CA0001102090EFBD0FF200243D005F0BD0A4619
:100CB0000146104654E70000623A00000000C07F81
:100CC0001F22030C02D10F2200041CD0030E01D1FD
:100CD0000002083A030F01D10001121F830F01D156
:100CE0008000921E002801DB4000521ED2055118E0
:100CF000021251181922904004D3491C002801D136
:100D00004908490008467047C10FC90700D0404252
:100D1000012292071143D3E701218907D0E7FFB5EC
:100D200004460D4681B0243000902168880604D521
:100D30001022E0699143216000E00120A84201DD1A
:100D4000471B00E000270498A1697A191018081AB7
:100D5000A0612078C00602D42046C046C0460026C6
:100D600008E003986268A168805D9047206A401C93
:100D7000761C206204988642F3DB2078C0060AD5F0
:100D80002046C046C04606E06268A1683020904711
:100D9000206A401C206238467F1E0028F4DC07E0F1
:100DA00000986268A168405D9047206A401C2062FC
:100DB00028466D1E0028F3DC2046C046C046207839
:100DC000000602D5022005B0F0BD0120FBE70000BF
:100DD00001694A1C02610878704700B58FB0029122
:100DE000002105910549019379440391114604902E
:100DF0006846FFF7F7F90FB000BD0000E5FFFFFF01
:100E000001468008081A02091018020A1018020C7C
:100E10001018C008820012185200891A01E0401C04
:100E20000A390A29FBD2704710B5FF231B0644007C
:100E30009C421DD84C009C421AD80346124A0B43D0
:100E400007D4401A02D3EFF3008010BDEFF3008007
:100E500010BD081A06D2EFF3008001219043C907A4
:100E6000084302E0EFF30080904380F3008810BD58
:100E70000D231B041A4204D01146002000F006F88E
:100E800010BD00F01BF810BD00000090C80212D584
:100E90004803400F002804D0C803C0430121884004
:100EA0007047EFF3008000010009032109070843A0
:100EB00080F30088704700207047000010B502489A
:100EC00000F02BF810BD00000000C07F754600F058
:100ED00053F8AE46050069465346C008C000854633
:100EE00018B020B5FFF742F960BC00274908B646A4
:100EF0000026C0C5C0C5C0C5C0C5C0C5C0C5C0C529
:100F0000C0C5403D49008D46704710B50446C046F7
:100F1000C0462046FFF719F910BD10B50C46110761
:100F2000090F092904D00A290AD008290CD104E0A4
:100F300011460820FFF7AAFF06E0510606D501E09A
:100F4000510601D50120C007214610BDD10607D5A5
:100F500001010909CC084907000E0006044309E015
:100F6000410F20024907000A0143200E00061D22FE
:100F7000D14101430846E7E7004870472C050020AF
:100F800001491820ABBEFEE72600020070B58C18A0
:100F90000578401C6B075B0F01D10378401C2A11B8
:100FA00006D10278401C03E00678401C0E70491CF4
:100FB0005B1EF9D12B0705D40023521E0DD40B70F4
:100FC000491CFAE70378401CCB1A921C03E01D78F9
:100FD0000D70491C5B1C521EF9D5A142D8D30020CC
:100FE00070BD000010B50F2000F08CFD00200149FD
:100FF000088010BD58F8FF1FF0B591B001F084FBD8
:101000006D4908606D4903C96D4B00220E930D9226
:101010000F9110901A460D9BFFF7B8F88A05800AC9
:1010200010438A0A64490968CB1740185A4163493A
:1010300005C10839086889888905800A08435E491E
:101040000968081A5C490860084600684043C117EF
:101050005C4B0CCB801859415A4A03C25A4803686A
:10106000416855480068C21718185141564A03C2D2
:10107000554903C9554B00220A9309920B910C90D4
:101080001A46099BFFF782F8CA05400A1043491225
:101090004D4A03C24C4903C9C82300220693059256
:1010A000079108901A46059BFFF770F84A04C00B99
:1010B0001043C913464A03C2454805684468284698
:1010C00021462A462346FFF761F8424B0CCB801895
:1010D0005941404A03C23C4903C9CA06400910436A
:1010E00049113D4A03C23D4803684068083A06CAB0
:1010F00059185041394A11605060114603C9FF2305
:10110000002202930192039104901A46019BFFF77B
:101110003DF80A06000A10430912304A03C22F495B
:1011200003C9CA064009104349112B4A03C22A4881
:10113000C0C83046394632463B46FFF727F8284BB1
:101140000CCB80185941264A03C226480088401C0F
:1011500000B22449088008460021415E0120800336
:10116000814226DD1748016880888204880B10437D
:101170001D4908600021134A11605160154801683B
:1011800080888204880B1043184908600021114AA6
:10119000116051601248016880888204880B1043F6
:1011A0001349086000210E4A1160516000200D496A
:1011B000088011B0F0BD000098F8FF1F08F8FF1F6D
:1011C000FF03000038F8FF1F28F8FF1FFF01000091
:1011D000A0F8FF1F40F8FF1FA8F8FF1F30F8FF1FFF
:1011E00048F8FF1F58F8FF1F10F8FF1F14F8FF1FE3
:1011F00018F8FF1F10B50F2000F07AFC10BD00009A
:10120000012802D10121044A5160002802D10121A4
:10121000014A91607047000000F10F4010B501F0E5
:1012200081FA0C488069802108430A498861084690
:101230008069102188430749886108468069042134
:1012400008430449886102F0DFF801210F2000F013
:101250006DFC10BD0080044070B502460B46FF25B2
:10126000FF2408E01178521C69400748405C604048
:1012700005460648445C18465E1EF3B20028F1D1CC
:101280002802204370BD00001444000014450000F3
:1012900070B502460B46FF25FF2408E01178521C6A
:1012A00069400748405C604005460648445C184673
:1012B0005E1EF3B20028F1D12802204370BD000069
:1012C000144400001445000010B501F03DFE10BDAF
:1012D00010B5012000F06AFAFF20F53002F092FC10
:1012E000002000F063FAFF20F53002F08BFC0120B3
:1012F00000F05CFAFF20F53002F084FC002000F0E2
:1013000055FA10BD10B5012000F042FAFF20F5306B
:1013100002F078FC002000F03BFAFF20F53002F0EC
:1013200071FC012000F034FAFF20F53002F06AFC75
:10133000002000F02DFA10BD0248C17840229143F0
:10134000C170704700A006400248C1784022914316
:10135000C170704700C00640F0B585B055480068C0
:1013600001F0EEFC0546FFF7D7FC04462046FFF7E8
:10137000CDFB514A514B03910290FFF7A3FA05466A
:10138000FEF7D4FF04464E484169204602F03CFF78
:1013900006464B48C169304602F036FF05464848CC
:1013A00081692846FFF7DCFB0446464884644648CA
:1013B000006801F0C5FC0546FFF7AEFC074638465D
:1013C000FFF7A4FB3C4A3D4B03910290FFF77AFAEA
:1013D0000546FEF7ABFF07463C49384602F014FFCE
:1013E0000190FFF793FB0546394A3A4BFFF76AFA3B
:1013F00003910290FEF79AFF07463148416938464B
:1014000002F002FF06462E48C169304602F0FCFE9B
:1014100005462B4881692846FFF7A2FB0746294865
:10142000C7642D48006801F08BFC0546FFF774FC8B
:1014300004900498FFF76AFB05461F4A1F4BFFF70D
:1014400041FA03910290FEF771FF04900498FFF7B0
:101450005DFB05461E4A214BFFF734FA0022204B64
:1014600001910090FFF72EFA03910290FEF75EFFC4
:1014700004901C49049802F0C7FE0390104841698B
:10148000039802F0C1FE06460D48C169304602F0DD
:10149000BBFE05460A4881692846FFF761FB0490B8
:1014A0003F210906049802F0AFFE0649086505B021
:1014B000F0BD000010F8FF1FBF1072DEFFC7A93F8C
:1014C000B0F9FF1F50FAFF1F14F8FF1F0000A040E3
:1014D0002D431CEBE236FA3F18F8FF1FE2368A3F35
:1014E000000010400000C84210B501F065F91A482C
:1014F000C0784006400E04280DD11848406B0121E9
:1015000009030843154948630846806B01210843D5
:10151000124988631FE01048C0784006400E012839
:1015200019D102F03DFD0446072C04D10C4801F00E
:1015300003FF0C4908600948406B01210903084377
:10154000064948630846806B0121084303498863C4
:10155000012001F01FF910BD00E0074000800440A9
:1015600000127A00CCFBFF1F0248C17840221143D1
:10157000C170704700A006400248C1784022114364
:10158000C170704700C0064038B505460095092077
:101590000849C87168468078887168464078487103
:1015A00068460078087172B600F006F8044662B624
:1015B000204638BD0000024010B5302008490870B0
:1015C00008480949086006480968884704480078BF
:1015D00031210840002801D0002010BD0120FCE787
:1015E0000000024035FCFF1F44FCFF1F002802D111
:1015F0000221044A5160012802D10221014A91606E
:101600007047000000F10F4010B54048C069072145
:1016100009028843FF3001303C49C8613C484069B9
:10162000802188433A4948613848C0690F2109043C
:1016300088430921090440183449C8611F2000F07B
:1016400061FA3448C068072109028843FF3001303D
:101650003049C8602E48403040690121C904084320
:101660002B49403148610120C00448602948403876
:101670000068072109028843FF30013025494039BD
:101680000860234840304069012108432049403127
:101690004861204840384068072109028843FF30EC
:1016A00001301C49403948601948403040690221E6
:1016B000084317494031486116480068072109026C
:1016C0008843FF30013013490860114840304069B9
:1016D0000121090408430E494031486101200004FA
:1016E00048600D480068072109028843FF30013037
:1016F00009490860064880384069012108430449C7
:10170000803948610120486010BD000000C00440DD
:10171000C0F00F4040D0044000A004400020044925
:10172000087004490860044908600449086070476B
:1017300068F8FF1F74F8FF1F70F8FF1F6CF8FF1F99
:1017400011484068072109028843FF3001300E49E3
:1017500048600E484069022108430C494861022054
:10176000886009488068072109028843FF300130FA
:1017700005498860054840690421084303494861D8
:1017800004204860704700000090044000F00F40C3
:10179000002802D10121044A5160012802D101210F
:1017A000014A91607047000040F00F40002802D1CC
:1017B0000121044A5160012802D10121014A9160AE
:1017C0007047000040F00F4010B59EB0044622461E
:1017D00006A16846FEF7F2FC7D23DB0006A209A104
:1017E000684600F031F81EB010BD000041542B4196
:1017F00044523D25640000006E6F206368616E678F
:10180000650000004F4B000010B59EB00446224614
:1018100006A16846FEF7D2FCFF23F53306A209A114
:10182000684600F011F81EB010BD000041542B4373
:101830004C4153533D2564006E6F206368616E67B1
:10184000650000004F4B0000F8B506460C461546F3
:101850001F462948408CC00BC003274948843146A5
:1018600026A000F00BFE002C03D1002D01D1012099
:10187000F8BD384602F0C6F900211F48408C4004EC
:10188000400C1D4A403A1154002C1CD0002D1AD097
:1018900021461046FEF712FD002801D0012000E08D
:1018A000002000280BD1294613484038FEF706FDDA
:1018B000002801D0012000E00020002801D00120F4
:1018C000D6E70020D4E7002C0AD021460A48403849
:1018D000FEF7F4FC002801D00120C9E70020C7E78B
:1018E000294605484038FEF7E9FC002801D00120D0
:1018F000BEE70020BCE700000800002025730D0AA9
:101900000000000010B59EB00446224606A16846BD
:10191000FEF754FC7D23DB0006A209A16846FFF711
:1019200093FF1EB010BD000041542B44523D25646E
:10193000000000006E6F206368616E676500000044
:101940004F4B000000B59FB005A101A8FEF736FC83
:10195000054B06A208A101A8FFF776FF1FB000BD46
:1019600041542B4A4F494E00983A00006E6F206355
:1019700068616E67650000005258444F4E45000094
:1019800010B59EB00446224606A16846FEF716FC36
:10199000FF23F53306A209A16846FFF755FF1EB0E5
:1019A00010BD000041542B4D4F44453D25640000BF
:1019B0006E6F206368616E67650000004F4B00002A
:1019C00010B59EB00446224606A16846FEF7F6FB17
:1019D0007D23DB0006A209A16846FFF735FF1EB094
:1019E00010BD000041542B504F5745523D25640017
:1019F0006E6F206368616E67650000004F4B0000EA
:101A000070B59EB005460E4614460848408CC00B83
:101A1000C00306494884224605A16846FEF7CEFB6E
:101A2000694606A000F08CFD1EB070BD08000020C5
:101A300041542B53454E443D25642C002573000032
:101A400070B504460D461646002C03D1002D01D179
:101A5000012070BD304602F0D5F800211E48408CB0
:101A60004004400C1C4A403A1154002C1CD0002D5C
:101A70001AD021461046FEF721FC002801D0012093
:101A800000E0002000280BD1294613484038FEF71B
:101A900015FC002801D0012000E00020002801D022
:101AA0000120D6E70020D4E7002C0AD021460A48BE
:101AB0004038FEF703FC002801D00120C9E70020D0
:101AC000C7E7294604484038FEF7F8FB002801D054
:101AD0000120BEE70020BCE70800002003480068A2
:101AE000802108430149086070470000000004405D
:101AF000C206D20E01219140014A116070470000D8
:101B000080E100E0C206D20E01219140014A11603D
:101B10007047000000E100E0C206D20E01219140B2
:101B2000014A11607047000000E100E010B5002894
:101B300019DA1A4A03071B0F083B9B089B00D2586F
:101B40008307DC0EFF23A3409A438B071B0E8407F9
:101B5000E40EA3401A43114B0407240F083CA408C9
:101B6000A4001A5118E00E4A03231B02D21883085E
:101B70009B00D2588307DC0EFF23A3409A438B07B8
:101B80001B0E8407E40EA3401A43054B03242402D2
:101B90001B198408A4001A5110BD00001CED00E0C0
:101BA00000E100E010B5002819DA1A4A03071B0FFC
:101BB000083B9B089B00D2588307DC0EFF23A34001
:101BC0009A438B071B0E8407E40EA3401A43114B64
:101BD0000407240F083CA408A4001A5118E00E4A78
:101BE00003231B02D21883089B00D2588307DC0E04
:101BF000FF23A3409A438B071B0E8407E40EA340E8
:101C00001A43054B032424021B198408A4001A510B
:101C100010BD00001CED00E000E100E0FEB500207A
:101C200001900327032000901B48808800121B4965
:101C30000870194800794870009888707800C8705A
:101C40000D1D00260CE00199891988B200F0D6FD1F
:101C50000446201228706D1C2C706D1C701CC6B2BE
:101C6000BE42F0DB0D48C078001DC1B20B48FFF743
:101C70000FFB04462046E117090E09180904090E56
:101C80002970E117090E091809120902611A697011
:101C90007800801DFEBD0000B0F8FF1F2C0400205E
:101CA000FEB5002001900427032000901B48808887
:101CB00000121B4908701948007948700098887014
:101CC0007800C8700D1D00260CE00199891988B2B2
:101CD00000F080FE0446201228706D1C2C706D1CD4
:101CE000701CC6B2BE42F0DB0D48C078001DC1B208
:101CF0000B48FFF7CDFA04462046E117090E0918F4
:101D00000904090E2970E117090E091809120902C0
:101D1000611A69707800801DFEBD0000B0F8FF1FD9
:101D20002C0400200948006A80280DD1074880381B
:101D3000C06901210906084304498039C861044883
:101D40000068401C024908607047000080C00440E1
:101D500074F8FF1F30B50346002005E044001C5B0B
:101D600045005453441CE0B24C088442F6D830BDC0
:101D700010B5002001F0C2FD0520074988800B2026
:101D8000C8800020088188720448088006204880A6
:101D9000084600F0C5F810BD5CFCFF1FE20700001C
:101DA00010B502881C4BD21AFF236E335A430A60C7
:101DB0000288D3179B0F9B189B10FF3BED3B0C68D1
:101DC0001B190B6043885B00144CE35A0A68D21855
:101DD0000A6083880A68D2180A6002789207920F14
:101DE000002A05D14288022A02D80A68521E0A60D7
:101DF0000B4B0A685A43C388E12424016343D31878
:101E000002893C2462439A18837AD2180A600A68CD
:101E1000521C0A6010BD0000B2070000FA43000027
:101E20008051010038B50446002C00D138BD04486B
:101E3000006800902146684600F012F800BFF5E700
:101E400000D003400548406904210840002804D020
:101E500002488068401C01498860704700D00340F8
:101E6000F3B583B00C4603980068029028490298A5
:101E7000FEF7CEFA064626490298FEF7C9FA029105
:101E8000E12109010298FEF7C3FAE080E12109018E
:101E90000298FEF7BDFA02913C210298FEF7B8FACB
:101EA00020813C210298FEF7B3FAA17219482080E4
:101EB000FF206E30019010E00198361A2088401CF7
:101EC000208020788007800F002803D0FF206E300C
:101ED000019002E0FF206F30019001988642EBD81C
:101EE00020788007800F002801D00B4F00E00B4FB7
:101EF000012507E0785DB04201D3658004E0785D9C
:101F0000361A6D1C0C2DF5D900BFA68005B0F0BDAA
:101F100080510100B2070000E0430000ED430000E3
:101F200018B50446002C00D118BD69462046FFF7BD
:101F300037FF0848406910218843064948610098E6
:101F4000086008464069102108430249486100BF03
:101F5000EAE7000000D0034070B50546274828494D
:101F60000978455426480078401C254908700846E1
:101F70000078030000F0BAFB05040506070814000A
:101F80003AE039E038E037E004E000F0BFFF002835
:101F900000D103E000F01AFF0028F6D000BF2BE0CC
:101FA00000F0E6FE0446022C15D1002405E013489B
:101FB000005D14490855601CC4B211480078844281
:101FC000F5DB0F4800781049087000200C490870B4
:101FD00001F038FA0FE0012C0CD100F097FF04E07B
:101FE00000F094FF002800D103E000F0EFFE00288D
:101FF000F6D000E000BF00BF00BF70BDCC040020E1
:1020000031FCFF1F0C05002033FCFF1F70B54F484B
:102010000078C0210840002868D14C484079402110
:10202000084000284ED14948007804210840002883
:1020300015D1474C4548007838210840C108012097
:102040008840C5B229462046FEF7E2F904463F48DB
:10205000407830210840002803D0640901E00124C1
:10206000E4033A48C078E0210840C106C90E0029BF
:1020700026D14011030000F039FB0805090D1115A8
:10208000191D20230520C00144431AE00520000249
:10209000444316E00F20C001444312E005204002F3
:1020A00044430EE0B720800044430AE0B720C0005C
:1020B000444306E02748444303E02748444300E004
:1020C00000BF38E021480079C006C00E451C2946F3
:1020D0001F48FEF79DF904461C484079C006C00E13
:1020E0000546183520466843044624E01748007822
:1020F000C0210840402815D114484078C007C00FBF
:10210000002802D10124E40315E01048007A0E22D1
:10211000104042080120904001461048FEF778F92F
:10212000044608E009480078C0210840802801D111
:10213000074C00E070BD0A484068000F411C204673
:10214000FEF766F90749086000BFF3E70040064064
:1021500000127A0095080000710B000000093D0094
:102160004080044020FCFF1F00202B4908602B48C2
:10217000806B4915084329498863012000042749D9
:1021800040314860264880682649084024498860D4
:102190000846C068234908402149C860892022496F
:1021A00008702420214948709A2008700846C07899
:1021B000C006C00EC870032008710020487100BF1F
:1021C0001A488079102108400028F9D100BF17482B
:1021D00080790C2108400828F9D140201349487122
:1021E00000BF124880790C2108400828F9D100BFAF
:1021F0000E488079402108400028F9D01A200B4968
:10220000087000BF094880790C2108400C28F9D1DA
:102210000748084908607047008104400080044076
:1022200040900440FFF8FFFE00500640004006408A
:10223000006CDC0220FCFF1F70B530480068802174
:1022400008432E4908602E480068401C2C4908604D
:102250002C480078012805D12B480068401C2A49E9
:10226000086014E027480078002810D1274800694A
:1022700080210840C043C043002805D1244800689D
:10228000401C2349086002E00020214908602048E2
:10229000006823218901884209D91A48007800285A
:1022A00005D101201749087000201A490860164816
:1022B00000687D21090188421ED912480078012852
:1022C0001AD114480068FEF727FD06468B21C90580
:1022D000FEF746FC05468721C90501F095FF044637
:1022E0000D4902F015F80D494865002005490870B0
:1022F000074908600449086070BD00000090034071
:1023000008FCFF1F68F8FF1F6CF8FF1FC0F00F40AC
:1023100070F8FF1F74F8FF1F0000484250FAFF1FBB
:1023200010B50F48C06B0121490608430C49C8632A
:10233000084640680B4908430949486040200A495B
:102340000860002048604B20C00088600846006894
:1023500008210843044908601220FFF7D3FB10BD91
:1023600000800440000001010090034070B51F4C44
:10237000207920210840002818D0E0780840002863
:1023800014D001F065FC05461949498C4804400CFD
:102390001749498CC90BC903421C5204520C114302
:1023A000134A5184114640390D5417E020794021D9
:1023B0000840002812D0E078084000280ED000F035
:1023C00097FC002808D0FFF7CFF800F055FC064630
:1023D000304601F0F3FC01E0FEF7AEFF0348407920
:1023E000402108430149487170BD000000A006402B
:1023F0000800002010B5054C02E0E07901F0FAFC7D
:102400002079202108400028F7D110BD00B00640F7
:1024100070B5194C207920210840002809D0E078B7
:102420000840002805D001F0F1FC0646FFF794FDB6
:1024300015E0207940210840002810D0E0780840BD
:1024400000280CD000F068FC002806D000F032FC18
:102450000546284601F054FD01E0FEF775FF0648E9
:102460004079402108430449487108460079082111
:1024700008430149087170BD00C006400FB470B533
:10248000A2B0002527A8019046E0269800782528CC
:1024900038D12698401C26900078642813D07328E1
:1024A00029D1019810C8019006E022782846691CBD
:1024B0008DB221490A54641C20780028F5D1269851
:1024C000401C26901DE0019840C801900A2202A9F4
:1024D000304600F0DBFC02AC06E022782846691C9E
:1024E0008DB215490A54641C20780028F5D126982D
:1024F000401C269005E02698401C2690681C85B25A
:1025000000BF09E0269802782846691C8DB20A4966
:102510000A542698401C2690269800780028B4D1AA
:10252000064805600168044801F006FD22B070BC51
:1025300008BC04B0184700002C0000201CFCFF1F42
:102540000FB4F0B5A3B00027002429A8019049E0FA
:102550002898007825283BD12898401C289000789E
:10256000642813D073282CD1019840C8019006E04C
:1025700032782046611C8CB233490A54761C30787C
:102580000028F5D12898401C289020E00198006888
:1025900022900198001D01900A2202A9229800F0C1
:1025A00075FC02AE06E032782046611C8CB22649EA
:1025B0000A54761C30780028F5D12898401C2890C1
:1025C00005E02898401C2890601C84B200BF09E0F8
:1025D000289802782046611C8CB21B490A5428981E
:1025E000401C2890289800780028B1D11748046032
:1025F0001748007C002803D1FFF710FB054602E0D6
:10260000FFF74EFB0546002705E01248C05DE119C3
:102610000D4A50547F1CAF42F7D30D2061190A4A6E
:1026200050540A216019401C11546019801C07493C
:10263000086008460168104601F07EFC23B0F0BC3B
:1026400008BC04B0184700002C0000201CFCFF1F31
:10265000B0F9FF1F2C040020F7B582B01446029891
:10266000019006202049C871062802D0072804D10D
:1026700001E0042503E0082501E0042500BF00BFB8
:1026800000272BE0684680791749887168464079B1
:102690004871684600790871E078C872A07888723D
:1026A0006078487220780872082D07D1E079C873E5
:1026B000A07988736079487320790873019840196C
:1026C0000190641972B6FEF777FF064662B6012ED6
:1026D00002D0002005B0F0BD781987B20398874278
:1026E000D0D30120F6E700000000024030B4744669
:1026F000641E2578641CAB4204D3635D5B00E31861
:1027000030BC18471D46F8E700BF05480068802127
:1027100008408028F9D10248006980B27047000063
:1027200000B003401748806B012149030843154955
:102730008863002014498860144988601148C06B80
:102740000121C90608430F49C8635C20104988600D
:102750000020C8600846006840094001086008463B
:102760000068022108430A490860084600684021C1
:102770000843074908600846006A402108430449A5
:10278000086270470080044040D0044000B004401C
:1027900000B00340002806D00649497920221143A1
:1027A000044A517105E00349497920229143014AC5
:1027B000517170470040064008B520200D4908704F
:1027C00008464078C008C00048700846407802219A
:1027D0000843084948700846407800900098401C1B
:1027E000009005480069042108430349086130BF8F
:1027F00008BD000000E0074000ED00E0F0B585B046
:10280000044600200490002C3CD16B49886C6B4935
:1028100001F052FD02D26A49674881646649886CBA
:10282000002101F0C7FC1AD26348806C0121C9075E
:1028300048406449019001F0E7FC0746FEF766F95D
:1028400005460022604BFEF70DF803910290FDF75C
:10285000ABFD80B20121C9030843049012E0564940
:10286000886C584901F0D0FC0746FEF74FF900226A
:10287000554B03910290FDF7F5FF0546FDF794FDDA
:1028800080B20490012C3CD14B49C86C4B4901F0FB
:1028900013FD02D24A494848C1644749C86C002127
:1028A00001F088FC1AD24448C06C0121C907484095
:1028B0000746444901F0A8FC0190FEF727F90546B8
:1028C0000022414BFDF7CEFF03910290FDF76CFD16
:1028D00080B20121C9030843049012E03649C86C54
:1028E000384901F091FC0746FEF710F90022364BFB
:1028F00003910290FDF7B6FF0546FDF755FD80B246
:102900000490022C31D12C49486D002101F052FC79
:1029100018D22948406DA10748402A49019001F08A
:1029200073FC0746FEF7F2F805460022264BFDF73A
:1029300099FF03910290FDF737FD80B2A103084390
:10294000049012E01C49486D1E4901F05DFC0746E9
:10295000FEF7DCF800221C4B03910290FDF782FF8A
:102960000546FDF721FD80B20490032C02D11748E3
:10297000C08E0490052C02D11548808904900C2C3F
:1029800002D11348808804900D2C02D11048408851
:1029900004900E2C02D10E48C08804900F2C02D156
:1029A0000B4800890490102C02D1094840890490FA
:1029B000049805B0F0BD000050FAFF1F00001B4452
:1029C000008022440000C8420000E03F50FBFF1F8F
:1029D000B0F8FF1FF0B585B0044600200490002C2D
:1029E0003CD18549886C854901F066FC02D2844956
:1029F000814881648049886C002101F0DBFB1AD298
:102A00007D48806C0121C90748407E49019001F052
:102A1000FBFB0746FEF77AF8054600227A4BFDF7E6
:102A200021FF03910290FDF7BFFC80B20121C90391
:102A30000843049012E07049886C724901F0E4FB8D
:102A40000746FEF763F800226F4B03910290FDF7F3
:102A500009FF0546FDF7A8FC80B20490012C3CD18B
:102A60006549C86C654901F027FC02D26449624897
:102A7000C1646149C86C002101F09CFB1AD25E4818
:102A8000C06C0121C907484007465E4901F0BCFB04
:102A90000190FEF73BF800225B4B03910290FDF79B
:102AA000E1FE0546FDF780FC80B20121C903084321
:102AB000049012E05049C86C524901F0A5FB07464A
:102AC000FEF724F80022504B03910290FDF7CAFE56
:102AD0000546FDF769FC80B20490022C31D14649CD
:102AE000086D002101F066FB18D24348006DA10774
:102AF00048404449019001F087FB0746FEF706F87D
:102B000005460022404BFDF7ADFE03910290FDF714
:102B10004BFC80B2A1030843049012E03649086DD3
:102B2000384901F071FB0746FDF7F0FF0022364BF4
:102B300003910290FDF796FE0546FDF735FC80B245
:102B40000490032C32D12C49486D002101F032FB56
:102B500019D22948406DE10748402A49019001F007
:102B600053FB0746FDF7D2FF05460022264BFDF733
:102B700079FE03910290FDF717FC80B20121C90391
:102B80000843049012E01C49486D1E4901F03CFBCB
:102B90000746FDF7BBFF00221B4B03910290FDF798
:102BA00061FE0546FDF700FC80B20490042C02D1C2
:102BB0001648C08E0490052C02D1154880890490D7
:102BC0000C2C02D11248808804900D2C02D11048A0
:102BD000408804900E2C02D10D48C08804900F2C20
:102BE00002D10B4800890490102C02D1084840897A
:102BF0000490049805B0F0BD50FAFF1F00001B447C
:102C0000008022440000C8420000E03F50FBFF1F4C
:102C1000B0F8FF1F00B5174840780300FFF766FDC6
:102C20000F090B0D0F11131517191B1D1F2123253C
:102C30002700082000BD0820FCE70820FAE708204C
:102C4000F8E70920F6E70920F4E70B20F2E70B206C
:102C5000F0E70B20EEE70B20ECE70B20EAE70B2078
:102C6000E8E70B20E6E70920E4E70920E2E7002097
:102C7000E0E70000CC0400200B4800780B4A1278F3
:102C800090420ADA0A48084A1278815C06480078BD
:102C9000401C054A1070084670470020034A107017
:102CA000014A107000BFF7E728FCFF1F2AFCFF1F36
:102CB0002C0400200B4800780B4A127890420ADA64
:102CC0000A48084A1278815C06480078401C054A88
:102CD0001070084670470020034A1070014A1070B7
:102CE00000BFF7E729FCFF1F2BFCFF1F4C0400204F
:102CF0000748007807490978884201DA01207047BF
:102D00000020044908700249087000BFF7E700007E
:102D100028FCFF1F2AFCFF1F074800780749097895
:102D2000884201DA012070470020044908700249F6
:102D3000087000BFF7E7000029FCFF1F2BFCFF1FF6
:102D400010B503461A4600200121890700E08908D2
:102D50009142FCD808E04418944203D84418121B4E
:102D60004C002018400889080029F4D110BD00004B
:102D7000F0B514480078042801DA0020F0BDFFF710
:102D800049FF0446002C00D1F8E70E480078A04225
:102D900001DA0020F2E7201FC1B20B48FEF75CFA0F
:102DA00005462E12EFB2E01E0749491E085CB042EC
:102DB00005D1A01E085CB84201D10220DEE7012047
:102DC000DCE7000031FCFF1FCD04002000B52D48DA
:102DD0000078012805DB2C4800787E2801D00020EF
:102DE00000BD2848007802283DDB274840780028AD
:102DF00039D025484078012835D02348407802282A
:102E000031D02148407803282DD01F48407804282D
:102E100029D01D484078052825D01B484078062831
:102E200021D01948407807281DD017484078082835
:102E300019D015484078092815D0134840780A2839
:102E400011D0114840780B280DD00F4840780C283D
:102E500009D00D4840780D2805D00B4840780E2841
:102E600001D00020BCE707480078042807DBFFF703
:102E7000D1FE0146102901DD0020B1E700BF01208D
:102E8000AEE7000031FCFF1FCC040020F7B582B094
:102E9000054600200190039C04980A2804D00020D5
:102EA0002070039805B0F0BD002D06D130202070B1
:102EB000641C002020700398F4E7002D03DA2D2015
:102EC0002070641C6D42104E17E031462846FDF715
:102ED000A9FA0746002F02D10198002808D03846E9
:102EE00030302070641C384670432D1A0120019048
:102EF0000A213046FDF796FA0646002EE5DC002052
:102F000020700398CEE70000102700000C480078DE
:102F1000012801DA00207047012106E00948425CDF
:102F2000481E084B1A54481CC1B20548007881421B
:102F3000F4DB03480078401E014A10700120EAE7E4
:102F400031FCFF1FCC04002010B50E4A02213F20A7
:102F50008002FEF7FFFE0B4800880B49884208D02C
:102F600008460849088000F059FDFF2107484186BE
:102F700010BD044AFF2122313F208002FEF7EAFE05
:102F800000BFF5E7B0F8FF1FAA45000050FBFF1F88
:102F900008B50024002500260021CF4841862A20BC
:102FA000CE490870FFF732F8CD48806B1F214902E7
:102FB0000843CB49886362B6FEF726FB0120FEF783
:102FC000E7FBFEF781F9FEF729F9FFF7A9F90120E0
:102FD0000823002211460090072000F045FE012042
:102FE00008230022114600904B20C00100F01AFF78
:102FF000FEF7BEFEBB490020BB4A116050600021B5
:10300000BA4A11605160BA4A11605160B94A116000
:1030100051600120FEF7F4F80120FEF7E7FA00BF47
:103020000120FEF7D1FB0028FAD000BF0520FEF7F3
:1030300069FC0028FAD000BF0020FEF7A1FC0028A0
:10304000FAD000BF0020FEF7DFFB0028FAD000BF57
:103050001420FEF7B5FC0028FAD03EE0A648007820
:10306000401CA549087008460078032835DB00207D
:103070000870FEF7C5F80020FEF7B8FA0120C0047A
:103080009E498860FEF73EF9C82000F0BBFD0C2089
:10309000FEF72EFD0021084600F09CFE9048406B94
:1030A0000121890288438E494863FEF749FB944811
:1030B0000468E120C00026180221304600F062FCBE
:1030C000FEF712FA00BFBFF34F8F8E488E49C860DB
:1030D000BFF34F8F00BF00BFFEE7FEF733FC0028B1
:1030E000BCD00020FEF754FBFEF7F2F8F2E06021BE
:1030F0008648FDF713F96D1C0A2D02D9002500F052
:103100008DFC01200823002211460090072000F0CA
:10311000ABFDFDF767FFFEF701FB1F20FEF7F2FC9A
:103120001220FEF7EFFC7A4800680821084378492E
:1031300008607D20C00000F065FD7D20400100F0AA
:1031400061FD7448FEF76EFEFEF706F9FEF752F8D1
:103150001F20FEF7CDFC1220FEF7CAFC6C48006869
:103160006B4908600120C00464498860012000F0B8
:1031700049FD0120C00461494860012000F042FD82
:10318000642000F03FFD6448407C01282BD0624859
:10319000407C002827D16048007C002805D10C2203
:1031A00000210220FEF72CFC08E05B48007C01288F
:1031B00004D10E2200210220FEF722FC08E057482D
:1031C0000068401C554908607D20C00000F01AFDD1
:1031D000642253A152A0FEF733FC002803D14F48CC
:1031E00000680828EBD37D20C00000F00BFD002014
:1031F0004A4908600120C004404988600120FEF768
:10320000D5FA0C20FEF774FC0021084600F0E2FD20
:103210003348406B01218902884331494863FEF7F6
:103220008FFA642000F0EEFC0020FEF7BFFA34486D
:1032300000683C4908603C48FF2101310958FF30D3
:1032400001304268374800680023401A934112D287
:103250003148016833480068081A34490860344826
:10326000808E3C225043014630480068FDF7D0F87C
:103270003048016016E0284801682A480068401A72
:103280002A4908602A48808E3C225043014627483C
:103290000068FDF7BDF82648808E3C225043401A56
:1032A0002449086023480068002802D101202149F0
:1032B00008600020FDF7A4FF114804681D4800685D
:1032C00026180221304600F05DFBFEF70DF90120C3
:1032D000FDF796FF0BE7000050FBFF1F00E00740E3
:1032E00000800440E0B6B50008F8FF1F20F8FF1F7B
:1032F00030F8FF1F28F8FF1F80F8FF1F00F10F4074
:1033000000D003400400FA0500ED00E0C8FFFF1FF5
:10331000009003405CFCFF1FB0F9FF1F18FCFF1F6B
:103320004F4B0000FCFBFF1FB0F8FF1FF4FBFF1F1B
:1033300070F9FF1FF8FBFF1FF8B507463148807989
:103340000C2108408008022811D12E4880791021D4
:10335000084000280BD12B48807920210840002804
:1033600005D02848407802210840002801D00720D5
:10337000F8BD002408E02348807940210840002857
:1033800000D005E0601C04B27D2000018442F2DB25
:1033900000BF1C48807940210840002801D144200A
:1033A000E6E718480079C006C00E451C154840796C
:1033B000C006C00E0646183612480078C021884361
:1033C00010490870002409E00E4880790C2108405B
:1033D0008008032800D105E0601C04B27D200001B4
:1033E0008442F1DB00BF074880790C210840800847
:1033F000032801D01B20BBE729463846FDF712F809
:103400007043B5E7004006400B48C06B0121C90579
:1034100008430949C86309480068022188430749ED
:1034200008604B20000106490860084680680121B9
:1034300008430349886070470080044000700340DF
:103440000071034010B51F4840780300FFF74EF9A4
:103450000F090C0F1215181B211E27242D2A33309B
:10346000360000F025F92AE000F064FB27E000F0C8
:103470002BF824E000F0E2FA21E000F005FA1EE06B
:1034800000F094FB1BE000F08BF918E000F052F81C
:1034900015E000F0E7FA12E000F040F90FE000F06C
:1034A0005DFB0CE000F0C2F809E000F01BFB06E059
:1034B00000F082F803E000F0FDFA00E000BF00BF7A
:1034C00010BD00000C05002010B57E2016490870C4
:1034D00002204870012088700020C8701348407C8A
:1034E000087108468078C01C0A46D27812028018FB
:1034F000C1B20D48401CFDF7CBFE04460A494C7191
:10350000201288717E20C87108468078C01DC97855
:10351000090240180649087008460178024800F080
:1035200025FD012010BD00008C040020B0F9FF1F14
:103530002DFCFF1F38B51D48406900907E201C49B6
:10354000087008204870042088700020C870009817
:10355000087100980004000E487100980002000EE7
:1035600088710098000EC87108468078C01C0A4611
:10357000D27812028018C1B20D48401CFDF788FEB7
:1035800004460B490C72201248727E20887208464D
:103590008078C01DC978090240180649087008469D
:1035A0000178034800F0E2FC012038BDB0F9FF1FAC
:1035B0008C0400202DFCFF1F10B57E2018490870D8
:1035C0000E204870022088700020C87015480079CD
:1035D0000871144880880012487108468078C01C21
:1035E0000A46D27812028018C1B20D48401CFDF77D
:1035F0004FFE04460A498C712012C8717E20087261
:1036000008468078C01DC97809024018064908702C
:1036100008460178024800F0A9FC012010BD000016
:103620008C040020B0F8FF1F2DFCFF1F38B51D488B
:10363000C06900907E201C4908700C20487004204E
:1036400088700020C8700098087100980004000E6F
:10365000487100980002000E88710098000EC87131
:1036600008468078C01C0A46D27812028018C1B27F
:103670000D48401CFDF70CFE04460B490C7220124D
:1036800048727E20887208468078C01DC978090279
:1036900040180649087008460178034800F066FCA7
:1036A000012038BDB0F9FF1F8C0400202DFCFF1F46
:1036B00010B57E20164908700020487001208870DF
:1036C0000020C8701348007C087108468078C01C30
:1036D0000A46D27812028018C1B20D48401CFDF78C
:1036E000D7FD04460A494C71201288717E20C871AA
:1036F00008468078C01DC97809024018064908703C
:1037000008460178024800F031FC012010BD00009D
:103710008C040020B0F9FF1F2DFCFF1F38B51D4899
:10372000806900907E201C4908700A20487004209F
:1037300088700020C8700098087100980004000E7E
:10374000487100980002000E88710098000EC87140
:1037500008468078C01C0A46D27812028018C1B28E
:103760000D48401CFDF794FD04460B490C722012D5
:1037700048727E20887208468078C01DC978090288
:1037800040180649087008460178034800F0EEFB2F
:10379000012038BDB0F9FF1F8C0400202DFCFF1F55
:1037A0001FB53648806C03903448C06C0290334893
:1037B000006D01903148406D00907E2030490870C6
:1037C00006204870102088700020C8700398087187
:1037D00003980004000E487103980002000E8871DF
:1037E0000398000EC8710298087202980004000E37
:1037F000487202980002000E88720298000EC87289
:103800000198087301980004000E487301980002A3
:10381000000E88730198000EC87300980874009811
:103820000004000E487400980002000E887400988E
:10383000000EC87408468078C01C0A46D27812026E
:103840008018C1B20E48401CFDF722FD04460C4909
:103850000C75201248757E20887508468078C01D3A
:10386000C9780902401807490870084601780448D9
:1038700000F07CFB012004B010BD000050FAFF1FD7
:103880008C0400202DFCFF1F10B57E201849087005
:1038900004204870022088700020C8701548808E6F
:1038A00008711448808E0012487108468078C01C48
:1038B0000A46D27812028018C1B20D48401CFDF7AA
:1038C000E7FC04460A498C712012C8717E200872F8
:1038D00008468078C01DC97809024018064908705A
:1038E00008460178024800F041FB012010BD0000AD
:1038F0008C04002070F9FF1F2DFCFF1F01461D4A9C
:10390000926B0123DB021A431A4B9A639A151A4BE6
:103910005A60184AD26B01235B071A43154BDA63CE
:103920000122D204154B1A600122154B1A611A4666
:103930001269520852001A611A465269D207D20F10
:10394000002A01D000221A600D4A526910231A4041
:10395000002A04D00A4A52699A43094B5A61084A1C
:103960001160002000E0401C032252059042FADB67
:10397000704700000080044000B004400070044024
:1039800000D0034070B505460C46E007C00F002884
:103990000CD02148C069102108431F49C861152077
:1039A000FEF7B0F803211520FEF7C0F802202040F2
:1039B00000280DD018488560C069042108431649C5
:1039C000C8611420FEF79EF803211420FEF7AEF81C
:1039D0000420204000280CD00F48C0690221084371
:1039E0000D49C8611420FEF78DF803211420FEF75D
:1039F0009DF80820204000280CD00748C06901210C
:103A000008430549C8611420FEF77CF803211420FF
:103A1000FEF78CF870BD000000D0034010B53F20C9
:103A20008002FDF7B1FD044AFF2121313F208002D1
:103A3000FEF712FE10BD0000B0F8FF1F10B50648DB
:103A40000178064800F092FA04480179044841746C
:103A5000FFF7E4FF012010BD33FCFF1F0C05002021
:103A6000B0F9FF1F08B510480178104800F07EFA41
:103A70000E48007900900D494979090200984018D4
:103A800000900A4989790904009840180090074974
:103A9000C9790906009840180090054800994161CD
:103AA000FFF7BCFF012008BD33FCFF1F0C05002001
:103AB000B0F9FF1F10B508480178084800F056FA21
:103AC0000648007905494979090240180449888067
:103AD000FFF7A4FF012010BD33FCFF1F0C050020E1
:103AE000B0F8FF1F08B510480178104800F03EFA02
:103AF0000E48007900900D49497909020098401854
:103B000000900A49897909040098401800900749F3
:103B1000C979090600984018009005480099C161CC
:103B2000FFF77CFF012008BD33FCFF1F0C050020C0
:103B3000B0F9FF1F10B506480178064800F016FAE4
:103B40000448017904480174FFF768FF012010BDA3
:103B500033FCFF1F0C050020B0F9FF1F08B510480B
:103B60000178104800F002FA0E48007900900D49E3
:103B7000497909020098401800900A498979090496
:103B80000098401800900749C97909060098401824
:103B90000090054800998161FFF740FF012008BDB2
:103BA00033FCFF1F0C050020B0F9FF1F10B50948BA
:103BB0000178094800F0DAF907480079064949799F
:103BC0000902401881B205488186FFF727FF0120CE
:103BD00010BD000033FCFF1F0C05002070F9FF1F13
:103BE00010B5FDF7C1FCFFF747F8044600F0E6F812
:103BF00010BD10B5FDF7C0FCFFF75CF8044600F0FF
:103C00007FF910BD1049896B012211430E4A91635F
:103C100000210E4A1160114688600521516011464D
:103C2000096801221143094A116000BF0749096868
:103C3000802211400029F9D0044909684908490047
:103C4000024A1160704700000080044000000440F8
:103C5000044900BF0879202210400028FAD0C87912
:103C60007047000000A00640FFB581B005460E4633
:103C700017464E4C002000902B00FEF737FD08053C
:103C8000080B0E1114171A1D4B252D0115E04B259D
:103C90006D0112E04B25AD010FE04B25ED010CE06D
:103CA0004B252D0209E04B256D0206E0E1252D0292
:103CB00003E0E1256D0200E000BF00BF3C48406822
:103CC0000121090408433A49486008464068012137
:103CD00089060843364948600846406B0915084381
:103CE000334948630021084600F074F80020A072B0
:103CF000012040022F4948608860A0781321884342
:103D0000A070A07A20218843A07204980A2809D1C3
:103D1000A078710039430843A070A07A202108439D
:103D2000A07208E004980838000171000843384385
:103D3000A1780843A07029011F480068FCF768FBC0
:103D400080B200901F2109020098084000122070E4
:103D500000986070207820218843207021780A988C
:103D6000401E400101432170E078F0218843E0705B
:103D700000BF207920210840002802D0E0790028E7
:103D8000F7D10121084600F025F8E07840210843EA
:103D9000E070E07820210843E0700C20FDF7BCFEC5
:103DA00003210C20FDF7FEFE05B0F0BD00A006408B
:103DB000008004400090044024FCFF1F044900BF21
:103DC0000A7980231A40002AFAD0C871704700008F
:103DD00000A0064010B502460548C3780C24A34352
:103DE000C370D3008C002343C4782343C37010BD39
:103DF00000A00640044900BF0A7980231A40002A27
:103E0000FAD0C8717047000000B00640044900BFF6
:103E10000879202210400028FAD0C87970470000A5
:103E200000C00640FFB581B005460E461746304C2F
:103E3000002000902F48406B0121090308432D49C1
:103E400048630021084600F067F8032000022A4971
:103E500048610861A07813218843A070049808384D
:103E60000001710008433843A1780843A07029017C
:103E700022480068FCF7CCFA80B200901F210902AA
:103E8000009808400012207000986070207820216F
:103E90008843207021780A98401E40010143217018
:103EA000E078F0218843E07000BF207920210840AD
:103EB000002802D0E0790028F7D10D480078402191
:103EC00008430B4908700121084600F025F8E07806
:103ED00040210843E070E07820210843E0700E2084
:103EE000FDF71AFE02210E20FDF75CFE05B0F0BDC5
:103EF00000C006400080044000C0044024FCFF1FB6
:103F0000044900BF0A7980231A40002AFAD0C871F8
:103F10007047000000C0064010B502460548C3784F
:103F20000C24A343C370D3008C002343C4782343E1
:103F3000C37010BD00C0064070B506460D46002493
:103F400000BF03E0305D06490855641CAC42F9D35C
:103F500000200449087004490D70FFF741FE70BD50
:103F60002C04002028FCFF1F2AFCFF1F70B506460A
:103F70000D46002400BF03E0305D06490855641C6F
:103F8000AC42F9D300200449087004490D70FFF7D2
:103F900030FE70BD4C04002029FCFF1F2BFCFF1FCE
:103FA000604880790C210840800800280DD15D48C8
:103FB000807910210840002807D05A4880792021B4
:103FC0000840002801D103207047564880790C2111
:103FD0000840800803280DD15248807910210840FC
:103FE000002807D14F48807920210840002801D0BF
:103FF0000820E9E74B4880790C2108408008022816
:1040000013D1484880791021084000280DD1454837
:10401000807920210840002807D0424840780221BA
:104020000840002801D10720CEE73E4880790C21C6
:1040300008408008022813D13A48807910210840AE
:1040400000280DD13748807920210840002807D169
:104050003448407802210840002801D10520B3E708
:10406000304880790C210840800802280DD12D4865
:10407000807910210840002807D12A484078022181
:104080000840002801D006209EE7264880790C21B0
:1040900008408008012813D1224880791021084067
:1040A00000280DD01F48807920210840002807D122
:1040B0001C48407802210840002801D0012083E7F5
:1040C000184880790C2108408008012813D1154830
:1040D00080791021084000280DD0124880792021D5
:1040E0000840002807D10F484078022108400028E6
:1040F00001D1022068E70B4880790C210840800834
:1041000000280DD10748807910210840002807D1E8
:104110000448807920210840002801D1042053E779
:10412000002051E70040064070B501250400ED076E
:104130004C4020D4441A01D2001B0919C60D4B0073
:10414000F2B2FF2A29D01B0E2CD000020C02D31A87
:104150002C43DC402843051910D2280A02D3401C06
:104160006D0611D0761EF6058019FF2A00DA70BDA3
:10417000C00DC00570BD694000F0D0F801200543B6
:10418000C541521C761CE8E764089C40C9016140A7
:104190008900E7D10124A043E4E71B0E440200D0CC
:1041A000034870BD002AFCD1C00FC00770BD00BF1E
:1041B0000000C07F01230200DB050A430DD4DA4270
:1041C00003D49A4207D488427047D84214D4D942C3
:1041D00012D48842704780427047DA4203D59A422F
:1041E000F9D5814270475B004200DA4204D24A00AE
:1041F000DA4201D28142704710B5024AFCF714FE40
:1042000010BD00BF0900160470B5420064414B00A8
:104210005C41120E39D01B0E38D0FF2A3CD0FF2B48
:104220003AD040024902400A490A060045184E4366
:10423000000A090AD2184843ED017F3A0104731AB3
:104240004019190C4318990F04D001215B08490744
:104250005B1A521CD80904D3401CF50301D19D06FA
:1042600007D0FF2A08D2D50506D0E407204340191D
:1042700070BD0125A843F4E7002A01DCE00770BD0A
:104280002402FF202043C00570BD1B0EFF2A03D06F
:10429000FF2B01D0E00770BDFF2645003606B54272
:1042A00006D84D00B54203D8D218FF2A00D0E7E760
:1042B000004870BD0000C07F01230A00DB050243F7
:1042C0000DD4DA4203D49A4207D481427047D942CE
:1042D00014D4D84212D48142704789427047DA42DE
:1042E00003D59A42F9D5884270475B004A00DA420A
:1042F00004D24200DA4201D288427047484041402D
:1043000010B5024A4840FCF78FFD10BD09001604A5
:1043100070B501250400ED074C4022D4441A02D2A6
:104320006C40001B0919C60D4B00F2B2FF2A4BD09E
:104330001B0E50D000020C02D31A2C43DC40A843C1
:10434000051B05D5AD0019D36D08761E521E37D05A
:10435000F605280A01D2801970BD70416D0603D0A0
:1043600070BD6940FFF7E6FE9C40090261404900CC
:1043700001D0401E70BD0124A04370BD6D081DD04A
:1043800001202B0C01D12D0410302B0E01D12D0258
:1043900008302B0F01D12D01001DAB0F01D1AD0055
:1043A000801CEB0F01D16D00401C6D00361A121AF3
:1043B000680AF5054019012A02DB70BD002070BDB6
:1043C000C036300AC00770BD1B0E440201D1FF2B5E
:1043D00000D1024870BD002AF0D070BD0000C07F3F
:1043E000001F1C1F1E1F1E1F1F1E1F1E1F001F1D24
:1043F0001F1E1F1E1F1F1E1F1E1F000000001F006C
:104400003B005A0078009700B500D400F30011017A
:1044100030014E0100C1814001C0804101C0804196
:1044200000C1814001C0804100C1814000C1814084
:1044300001C0804101C0804100C1814000C1814074
:1044400001C0804100C1814001C0804101C0804164
:1044500000C1814001C0804100C1814000C1814054
:1044600001C0804100C1814001C0804101C0804144
:1044700000C1814000C1814001C0804101C0804134
:1044800000C1814001C0804100C1814000C1814024
:1044900001C0804101C0804100C1814000C1814014
:1044A00001C0804100C1814001C0804101C0804104
:1044B00000C1814000C1814001C0804101C08041F4
:1044C00000C1814001C0804100C1814000C18140E4
:1044D00001C0804100C1814001C0804101C08041D4
:1044E00000C1814001C0804100C1814000C18140C4
:1044F00001C0804101C0804100C1814000C18140B4
:1045000001C0804100C1814001C0804101C08041A3
:1045100000C1814000C0C101C30302C2C60607C773
:1045200005C5C404CC0C0DCD0FCFCE0E0ACACB0BE3
:10453000C90908C8D81819D91BDBDA1A1EDEDF1F13
:10454000DD1D1CDC14D4D515D71716D6D21213D303
:1045500011D1D010F03031F133F3F23236F6F737B3
:10456000F53534F43CFCFD3DFF3F3EFEFA3A3BFBA3
:1045700039F9F83828E8E929EB2B2AEAEE2E2FEF53
:104580002DEDEC2CE42425E527E7E62622E2E323C3
:10459000E12120E0A06061A163A3A26266A6A767F3
:1045A000A56564A46CACAD6DAF6F6EAEAA6A6BAB63
:1045B00069A9A86878B8B979BB7B7ABABE7E7FBF93
:1045C0007DBDBC7CB47475B577B7B67672B2B37383
:1045D000B17170B050909151935352929656579733
:1045E000559594549C5C5D9D5F9F9E5E5A9A9B5B23
:1045F00099595898884849894B8B8A4A4E8E8F4FD3
:104600008D4D4C8C44848545874746868242438342
:10461000418180408182838485868788898B8C8DC7
:104620008E8F919293959697999A9C9D9FA0A2A305
:10463000A5A7A8AAACAEB0B2B3B5B7B9BCBEC0C24C
:10464000C5C7C9CCCED1D4D7D9DCDFE2E6E9ECF0DE
:10465000F3F7FAFE7446000000F8FF1F480400005C
:104660008C0F00002C47000048FCFF1F4811000081
:104670000401000001630A1D011F00131B02030453
:1046800005060708090A0B0C0D0E0F101112131462
:1046900055AA03328C1A08571B03063E091501233D
:1046A000D403A904DAE804CB1027040121DA20049A
:1046B000198012027AFF011203120412051991D90E
:1046C000FB13204E4210492C121472145A640481B8
:1046D00023F40132321A2C08321E292E2B2C01020F
:1046E0001A4A461A1104493A8DC3A4B6595E4904C0
:1046F000216B803F0403FFAA5501B723AA558B0AFB
:1047000011049A3604D14A10040323D00723093D2B
:104710001A8050013C146CDC02D4366E01100CB5CA
:0C4720008021017001780906FCD562BD03
:04000005000000C136
:00000001FF
